{
  "contractName": "CCGG_all",
  "abi": [
    {
      "inputs": [],
      "stateMutability": "nonpayable",
      "type": "constructor"
    },
    {
      "anonymous": false,
      "inputs": [
        {
          "indexed": false,
          "internalType": "address",
          "name": "guesser",
          "type": "address"
        },
        {
          "indexed": false,
          "internalType": "uint256",
          "name": "numGuessed",
          "type": "uint256"
        },
        {
          "indexed": false,
          "internalType": "uint256",
          "name": "payoutAmount",
          "type": "uint256"
        }
      ],
      "name": "AceFound",
      "type": "event"
    },
    {
      "anonymous": false,
      "inputs": [],
      "name": "BoardIsReady",
      "type": "event"
    },
    {
      "anonymous": false,
      "inputs": [
        {
          "indexed": false,
          "internalType": "uint256",
          "name": "cardNumber",
          "type": "uint256"
        },
        {
          "indexed": false,
          "internalType": "string",
          "name": "cardValue",
          "type": "string"
        },
        {
          "indexed": false,
          "internalType": "address",
          "name": "guessedBy",
          "type": "address"
        }
      ],
      "name": "CardRevealed",
      "type": "event"
    },
    {
      "anonymous": false,
      "inputs": [
        {
          "indexed": false,
          "internalType": "address",
          "name": "guesser",
          "type": "address"
        },
        {
          "indexed": false,
          "internalType": "uint256",
          "name": "numGuessed",
          "type": "uint256"
        },
        {
          "indexed": false,
          "internalType": "uint256",
          "name": "payoutAmount",
          "type": "uint256"
        },
        {
          "indexed": false,
          "internalType": "enum CCGG_all.FaceCard",
          "name": "faceCardType",
          "type": "uint8"
        }
      ],
      "name": "FaceCardFound",
      "type": "event"
    },
    {
      "anonymous": false,
      "inputs": [],
      "name": "GameOver",
      "type": "event"
    },
    {
      "anonymous": false,
      "inputs": [],
      "name": "GameOverTimeout",
      "type": "event"
    },
    {
      "anonymous": false,
      "inputs": [
        {
          "indexed": false,
          "internalType": "uint256",
          "name": "guessNumber",
          "type": "uint256"
        },
        {
          "indexed": false,
          "internalType": "address",
          "name": "guessedBy",
          "type": "address"
        },
        {
          "indexed": false,
          "internalType": "uint256",
          "name": "betSize",
          "type": "uint256"
        }
      ],
      "name": "GuessSubmitted",
      "type": "event"
    },
    {
      "anonymous": false,
      "inputs": [
        {
          "indexed": false,
          "internalType": "address",
          "name": "guesser",
          "type": "address"
        },
        {
          "indexed": false,
          "internalType": "uint256",
          "name": "numGuessed",
          "type": "uint256"
        },
        {
          "indexed": false,
          "internalType": "uint256",
          "name": "payoutAmount",
          "type": "uint256"
        }
      ],
      "name": "JackFound",
      "type": "event"
    },
    {
      "anonymous": false,
      "inputs": [
        {
          "indexed": false,
          "internalType": "address",
          "name": "contributor",
          "type": "address"
        },
        {
          "indexed": false,
          "internalType": "uint256",
          "name": "amountContributed",
          "type": "uint256"
        },
        {
          "indexed": false,
          "internalType": "uint256",
          "name": "newJackpotSize",
          "type": "uint256"
        },
        {
          "indexed": false,
          "internalType": "uint256",
          "name": "amountAddedToJackpot",
          "type": "uint256"
        }
      ],
      "name": "JackpotSizeIncrease",
      "type": "event"
    },
    {
      "anonymous": false,
      "inputs": [
        {
          "indexed": false,
          "internalType": "address",
          "name": "guesser",
          "type": "address"
        },
        {
          "indexed": false,
          "internalType": "uint256",
          "name": "numGuessed",
          "type": "uint256"
        },
        {
          "indexed": false,
          "internalType": "uint256",
          "name": "payoutAmount",
          "type": "uint256"
        }
      ],
      "name": "KingFound",
      "type": "event"
    },
    {
      "anonymous": false,
      "inputs": [],
      "name": "NewGameCreated",
      "type": "event"
    },
    {
      "anonymous": false,
      "inputs": [
        {
          "indexed": true,
          "internalType": "address",
          "name": "previousOwner",
          "type": "address"
        },
        {
          "indexed": true,
          "internalType": "address",
          "name": "newOwner",
          "type": "address"
        }
      ],
      "name": "OwnershipTransferred",
      "type": "event"
    },
    {
      "anonymous": false,
      "inputs": [
        {
          "indexed": false,
          "internalType": "address",
          "name": "account",
          "type": "address"
        }
      ],
      "name": "Paused",
      "type": "event"
    },
    {
      "anonymous": false,
      "inputs": [
        {
          "indexed": false,
          "internalType": "address",
          "name": "guesser",
          "type": "address"
        },
        {
          "indexed": false,
          "internalType": "uint256",
          "name": "numGuessed",
          "type": "uint256"
        },
        {
          "indexed": false,
          "internalType": "uint256",
          "name": "payoutAmount",
          "type": "uint256"
        }
      ],
      "name": "QueenFound",
      "type": "event"
    },
    {
      "anonymous": false,
      "inputs": [
        {
          "indexed": false,
          "internalType": "address",
          "name": "account",
          "type": "address"
        }
      ],
      "name": "Unpaused",
      "type": "event"
    },
    {
      "inputs": [],
      "name": "MAX_BET",
      "outputs": [
        {
          "internalType": "uint256",
          "name": "",
          "type": "uint256"
        }
      ],
      "stateMutability": "view",
      "type": "function"
    },
    {
      "inputs": [],
      "name": "MIN_BET",
      "outputs": [
        {
          "internalType": "uint256",
          "name": "",
          "type": "uint256"
        }
      ],
      "stateMutability": "view",
      "type": "function"
    },
    {
      "inputs": [],
      "name": "aceHasBeenFound",
      "outputs": [
        {
          "internalType": "bool",
          "name": "",
          "type": "bool"
        }
      ],
      "stateMutability": "view",
      "type": "function"
    },
    {
      "inputs": [],
      "name": "boardHeight",
      "outputs": [
        {
          "internalType": "uint256",
          "name": "",
          "type": "uint256"
        }
      ],
      "stateMutability": "view",
      "type": "function"
    },
    {
      "inputs": [],
      "name": "boardWidth",
      "outputs": [
        {
          "internalType": "uint256",
          "name": "",
          "type": "uint256"
        }
      ],
      "stateMutability": "view",
      "type": "function"
    },
    {
      "inputs": [],
      "name": "cardsChosen",
      "outputs": [
        {
          "internalType": "uint8",
          "name": "",
          "type": "uint8"
        }
      ],
      "stateMutability": "view",
      "type": "function"
    },
    {
      "inputs": [],
      "name": "currentLevel",
      "outputs": [
        {
          "internalType": "uint256",
          "name": "",
          "type": "uint256"
        }
      ],
      "stateMutability": "view",
      "type": "function"
    },
    {
      "inputs": [],
      "name": "fee",
      "outputs": [
        {
          "internalType": "uint256",
          "name": "",
          "type": "uint256"
        }
      ],
      "stateMutability": "view",
      "type": "function"
    },
    {
      "inputs": [],
      "name": "jackHasBeenFound",
      "outputs": [
        {
          "internalType": "bool",
          "name": "",
          "type": "bool"
        }
      ],
      "stateMutability": "view",
      "type": "function"
    },
    {
      "inputs": [],
      "name": "jackpotSize",
      "outputs": [
        {
          "internalType": "uint256",
          "name": "",
          "type": "uint256"
        }
      ],
      "stateMutability": "view",
      "type": "function"
    },
    {
      "inputs": [],
      "name": "keyHash",
      "outputs": [
        {
          "internalType": "bytes32",
          "name": "",
          "type": "bytes32"
        }
      ],
      "stateMutability": "view",
      "type": "function"
    },
    {
      "inputs": [],
      "name": "kingHasBeenFound",
      "outputs": [
        {
          "internalType": "bool",
          "name": "",
          "type": "bool"
        }
      ],
      "stateMutability": "view",
      "type": "function"
    },
    {
      "inputs": [],
      "name": "owner",
      "outputs": [
        {
          "internalType": "address",
          "name": "",
          "type": "address"
        }
      ],
      "stateMutability": "view",
      "type": "function"
    },
    {
      "inputs": [],
      "name": "paused",
      "outputs": [
        {
          "internalType": "bool",
          "name": "",
          "type": "bool"
        }
      ],
      "stateMutability": "view",
      "type": "function"
    },
    {
      "inputs": [],
      "name": "queenHasBeenFound",
      "outputs": [
        {
          "internalType": "bool",
          "name": "",
          "type": "bool"
        }
      ],
      "stateMutability": "view",
      "type": "function"
    },
    {
      "inputs": [],
      "name": "randomResult",
      "outputs": [
        {
          "internalType": "uint256",
          "name": "",
          "type": "uint256"
        }
      ],
      "stateMutability": "view",
      "type": "function"
    },
    {
      "inputs": [
        {
          "internalType": "bytes32",
          "name": "requestId",
          "type": "bytes32"
        },
        {
          "internalType": "uint256",
          "name": "randomness",
          "type": "uint256"
        }
      ],
      "name": "rawFulfillRandomness",
      "outputs": [],
      "stateMutability": "nonpayable",
      "type": "function"
    },
    {
      "inputs": [],
      "name": "renounceOwnership",
      "outputs": [],
      "stateMutability": "nonpayable",
      "type": "function"
    },
    {
      "inputs": [
        {
          "internalType": "address",
          "name": "newOwner",
          "type": "address"
        }
      ],
      "name": "transferOwnership",
      "outputs": [],
      "stateMutability": "nonpayable",
      "type": "function"
    },
    {
      "inputs": [],
      "name": "getRandomNumber",
      "outputs": [
        {
          "internalType": "bytes32",
          "name": "requestId",
          "type": "bytes32"
        }
      ],
      "stateMutability": "nonpayable",
      "type": "function"
    },
    {
      "inputs": [],
      "name": "getCurrentGameState",
      "outputs": [
        {
          "components": [
            {
              "internalType": "bool",
              "name": "gameIsBeingCreated",
              "type": "bool"
            },
            {
              "internalType": "bool",
              "name": "aceHasBeenFound",
              "type": "bool"
            },
            {
              "internalType": "bool",
              "name": "kingHasBeenFound",
              "type": "bool"
            },
            {
              "internalType": "bool",
              "name": "queenHasBeenFound",
              "type": "bool"
            },
            {
              "internalType": "bool",
              "name": "jackHasBeenFound",
              "type": "bool"
            },
            {
              "internalType": "uint256",
              "name": "aceNum",
              "type": "uint256"
            },
            {
              "internalType": "uint256",
              "name": "kingNum",
              "type": "uint256"
            },
            {
              "internalType": "uint256",
              "name": "queenNum",
              "type": "uint256"
            },
            {
              "internalType": "uint256",
              "name": "jackNum",
              "type": "uint256"
            },
            {
              "internalType": "uint8",
              "name": "cardsChosen",
              "type": "uint8"
            },
            {
              "internalType": "uint256",
              "name": "currentLevel",
              "type": "uint256"
            },
            {
              "internalType": "uint256",
              "name": "jackpotSize",
              "type": "uint256"
            },
            {
              "internalType": "uint256[]",
              "name": "revealedCards",
              "type": "uint256[]"
            },
            {
              "internalType": "string[]",
              "name": "revealedCardValues",
              "type": "string[]"
            }
          ],
          "internalType": "struct CCGG_all.GameState",
          "name": "",
          "type": "tuple"
        }
      ],
      "stateMutability": "view",
      "type": "function"
    },
    {
      "inputs": [],
      "name": "createNewBoard",
      "outputs": [],
      "stateMutability": "nonpayable",
      "type": "function"
    },
    {
      "inputs": [
        {
          "internalType": "uint256",
          "name": "numGuessed",
          "type": "uint256"
        }
      ],
      "name": "submitGuess",
      "outputs": [],
      "stateMutability": "payable",
      "type": "function"
    },
    {
      "inputs": [
        {
          "internalType": "uint256",
          "name": "numGuessed",
          "type": "uint256"
        },
        {
          "internalType": "address",
          "name": "guessedBy",
          "type": "address"
        },
        {
          "internalType": "uint256",
          "name": "betSize",
          "type": "uint256"
        }
      ],
      "name": "processGuess",
      "outputs": [],
      "stateMutability": "payable",
      "type": "function"
    },
    {
      "inputs": [
        {
          "internalType": "string",
          "name": "newNickname",
          "type": "string"
        }
      ],
      "name": "setNickname",
      "outputs": [],
      "stateMutability": "nonpayable",
      "type": "function"
    },
    {
      "inputs": [
        {
          "internalType": "address",
          "name": "account",
          "type": "address"
        }
      ],
      "name": "getNickname",
      "outputs": [
        {
          "internalType": "string",
          "name": "",
          "type": "string"
        }
      ],
      "stateMutability": "view",
      "type": "function"
    },
    {
      "inputs": [],
      "name": "getMyNickname",
      "outputs": [
        {
          "internalType": "string",
          "name": "",
          "type": "string"
        }
      ],
      "stateMutability": "view",
      "type": "function"
    },
    {
      "inputs": [],
      "name": "getFaceCardNumbers",
      "outputs": [
        {
          "internalType": "uint256",
          "name": "",
          "type": "uint256"
        },
        {
          "internalType": "uint256",
          "name": "",
          "type": "uint256"
        },
        {
          "internalType": "uint256",
          "name": "",
          "type": "uint256"
        },
        {
          "internalType": "uint256",
          "name": "",
          "type": "uint256"
        }
      ],
      "stateMutability": "view",
      "type": "function"
    },
    {
      "inputs": [],
      "name": "getRevealedCards",
      "outputs": [
        {
          "internalType": "uint256[]",
          "name": "",
          "type": "uint256[]"
        }
      ],
      "stateMutability": "view",
      "type": "function"
    },
    {
      "inputs": [],
      "name": "getRevealedCardValues",
      "outputs": [
        {
          "internalType": "string[]",
          "name": "",
          "type": "string[]"
        }
      ],
      "stateMutability": "view",
      "type": "function"
    },
    {
      "inputs": [],
      "name": "fundContract",
      "outputs": [
        {
          "internalType": "string",
          "name": "",
          "type": "string"
        }
      ],
      "stateMutability": "payable",
      "type": "function"
    },
    {
      "inputs": [],
      "name": "contractBalance",
      "outputs": [
        {
          "internalType": "uint256",
          "name": "",
          "type": "uint256"
        }
      ],
      "stateMutability": "view",
      "type": "function"
    },
    {
      "inputs": [],
      "name": "withdraw",
      "outputs": [],
      "stateMutability": "payable",
      "type": "function"
    },
    {
      "inputs": [
        {
          "internalType": "uint256",
          "name": "amountToWithdraw",
          "type": "uint256"
        }
      ],
      "name": "withdrawSome",
      "outputs": [],
      "stateMutability": "payable",
      "type": "function"
    },
    {
      "inputs": [],
      "name": "withdrawLink",
      "outputs": [],
      "stateMutability": "nonpayable",
      "type": "function"
    },
    {
      "inputs": [],
      "name": "linkBalance",
      "outputs": [
        {
          "internalType": "uint256",
          "name": "",
          "type": "uint256"
        }
      ],
      "stateMutability": "view",
      "type": "function"
    },
    {
      "inputs": [
        {
          "internalType": "address",
          "name": "newWorker",
          "type": "address"
        }
      ],
      "name": "setWorker",
      "outputs": [],
      "stateMutability": "nonpayable",
      "type": "function"
    }
  ],
  "bytecode": "0x600280546001600160a01b03191633179055600a600381815560049182556019600581905561014060405260c0908152600f60e052600c61010052610120919091526200005091600691906200038e565b5060408051608081018252600f8152600a602082015260069181019190915260026060820152620000869060079060046200038e565b5060408051608081018252600a81526005602082015260039181019190915260016060820152620000bc9060089060046200038e565b50600a805460ff19166001179055670de0b6b3a7640000601955601a80546001600160a01b031990811673b0897686c545045afc77cf20ec7a532e3120e0f117909155601b8054821673326c977e6efc84e512bb9c30f76e30c160ed06fb179055601c80548216733d2341adb2d31f1c5530cdc622016af293177ae0179055601d8054909116738c7382f9d8f56b33781fe506e897a4f1e2d172551790557ff86195cf7690c55907b2b611ebb7343a6f649bff128701cc542f0569e2c549da601e557f6e75b569a01ef56d18cab6a8e71e6600d6ce853834d4a5748b720d06f878b3a4601f55620138816020819055620001b34690565b14620001cb57601a546001600160a01b0316620001d8565b601b546001600160a01b03165b602180546001600160a01b0319166001600160a01b0392909216919091179055602054620002034690565b146200021b57601c546001600160a01b031662000228565b601d546001600160a01b03165b602280546001600160a01b0319166001600160a01b0392909216919091179055602054620002534690565b146200026257601e5462000266565b601f545b6023553480156200027657600080fd5b506022546021546001600160601b0319606092831b811660a052911b16608052620002a8620002a23390565b6200033c565b6001805460ff60a01b19168155602354601655655af3107a40006017555b600454600354620002d891906200048d565b81116200032f576040805180820182526005815264656d70747960d81b602080830191825260008581526014909152929092209051620003199290620003e3565b50806200032681620004af565b915050620002c6565b506019546011556200050a565b600180546001600160a01b038381166001600160a01b0319831681179093556040519116919082907f8be0079c531659141344cd1fd0a4f28419497f9722a3daafe3b4186f6b6457e090600090a35050565b828054828255906000526020600020908101928215620003d1579160200282015b82811115620003d1578251829060ff16905591602001919060010190620003af565b50620003df92915062000460565b5090565b828054620003f190620004cd565b90600052602060002090601f016020900481019282620004155760008555620003d1565b82601f106200043057805160ff1916838001178555620003d1565b82800160010185558215620003d1579182015b82811115620003d157825182559160200191906001019062000443565b5b80821115620003df576000815560010162000461565b634e487b7160e01b600052601160045260246000fd5b6000816000190483118215151615620004aa57620004aa62000477565b500290565b6000600019821415620004c657620004c662000477565b5060010190565b600181811c90821680620004e257607f821691505b602082108114156200050457634e487b7160e01b600052602260045260246000fd5b50919050565b60805160601c60a05160601c612a786200053d60003960008181610a8d0152612191015260006121620152612a786000f3fe60806040526004361061021a5760003560e01c806394985ddd11610123578063d24e3c50116100ab578063f2fde38b1161006f578063f2fde38b14610595578063f83fd805146105b5578063fa483041146105d7578063fd4e8511146105f7578063fe28e2651461060d57600080fd5b8063d24e3c501461051f578063dbdff2c114610535578063ddca3f431461054a578063e32c632914610560578063e79ef8471461057357600080fd5b8063ae9b051c116100f2578063ae9b051c146104ba578063bd097e21146104cd578063c09ff086146104d5578063c26ecefa146104ea578063c26f6d44146104ff57600080fd5b806394985ddd146104515780639dc4b9c914610471578063a4fb5e1614610487578063adaccd741461049a57600080fd5b8063715018a6116101a65780638b7afe2e116101755780638b7afe2e1461039e5780638da5cb5b146103b35780638dc654a2146103db5780639146afec146103f05780639385daa71461042557600080fd5b8063715018a61461032a5780637e34ca161461033f5780637e95b52314610360578063845a3a461461037c57600080fd5b806357246d23116101ed57806357246d23146102985780635c975abb146102ae5780635e0051c3146102d957806361728f39146102f85780636540742f1461030e57600080fd5b80631c5d9faa1461021f57806329156746146102415780633ccfd60b1461026c57806342619f6614610274575b600080fd5b34801561022b57600080fd5b5061023f61023a366004612429565b61062f565b005b34801561024d57600080fd5b50610256610686565b6040516102639190612527565b60405180910390f35b61023f610727565b34801561028057600080fd5b5061028a60185481565b604051908152602001610263565b3480156102a457600080fd5b5061028a60115481565b3480156102ba57600080fd5b50600154600160a01b900460ff165b6040519015158152602001610263565b3480156102e557600080fd5b50600a546102c990610100900460ff1681565b34801561030457600080fd5b5061028a60165481565b34801561031a57600080fd5b5061028a670de0b6b3a764000081565b34801561033657600080fd5b5061023f6107a9565b34801561034b57600080fd5b50600a546102c9906301000000900460ff1681565b34801561036c57600080fd5b5061028a678ac7230489e8000081565b34801561038857600080fd5b506103916107df565b6040516102639190612541565b3480156103aa57600080fd5b5061028a6108b8565b3480156103bf57600080fd5b506001546040516001600160a01b039091168152602001610263565b3480156103e757600080fd5b5061023f6108ea565b3480156103fc57600080fd5b506104056109bd565b604080519485526020850193909352918301526060820152608001610263565b34801561043157600080fd5b50600f5461043f9060ff1681565b60405160ff9091168152602001610263565b34801561045d57600080fd5b5061023f61046c3660046125a3565b610a82565b34801561047d57600080fd5b5061028a60105481565b61023f6104953660046125e1565b610b04565b3480156104a657600080fd5b506102566104b5366004612616565b611517565b61023f6104c8366004612631565b6115c3565b6102566116a9565b3480156104e157600080fd5b5061023f6116f8565b3480156104f657600080fd5b5061028a61179d565b34801561050b57600080fd5b5061023f61051a366004612616565b61184a565b34801561052b57600080fd5b5061028a60045481565b34801561054157600080fd5b5061028a611896565b34801561055657600080fd5b5061028a60175481565b61023f61056e366004612631565b6118a6565b34801561057f57600080fd5b506105886119f0565b6040516102639190612685565b3480156105a157600080fd5b5061023f6105b0366004612616565b611a47565b3480156105c157600080fd5b506105ca611adf565b60405161026391906126ed565b3480156105e357600080fd5b50600a546102c99062010000900460ff1681565b34801561060357600080fd5b5061028a60035481565b34801561061957600080fd5b50600a546102c990640100000000900460ff1681565b600154600160a01b900460ff16156106625760405162461bcd60e51b8152600401610659906127e9565b60405180910390fd5b3360009081526009602090815260409091208251610682928401906122e7565b5050565b3360009081526009602052604090208054606091906106a490612813565b80601f01602080910402602001604051908101604052809291908181526020018280546106d090612813565b801561071d5780601f106106f25761010080835404028352916020019161071d565b820191906000526020600020905b81548152906001019060200180831161070057829003601f168201915b5050505050905090565b6001546001600160a01b031633146107515760405162461bcd60e51b81526004016106599061284e565b604051600090339047908381818185875af1925050503d8060008114610793576040519150601f19603f3d011682016040523d82523d6000602084013e610798565b606091505b50509050806107a657600080fd5b50565b6001546001600160a01b031633146107d35760405162461bcd60e51b81526004016106599061284e565b6107dd6000611d93565b565b60606013805480602002602001604051908101604052809291908181526020016000905b828210156108af57838290600052602060002001805461082290612813565b80601f016020809104026020016040519081016040528092919081815260200182805461084e90612813565b801561089b5780601f106108705761010080835404028352916020019161089b565b820191906000526020600020905b81548152906001019060200180831161087e57829003601f168201915b505050505081526020019060010190610803565b50505050905090565b6001546000906001600160a01b031633146108e55760405162461bcd60e51b81526004016106599061284e565b504790565b6001546001600160a01b031633146109145760405162461bcd60e51b81526004016106599061284e565b6021546001600160a01b031663a9059cbb6109376001546001600160a01b031690565b61093f61179d565b6040516001600160e01b031960e085901b1681526001600160a01b0390921660048301526024820152604401602060405180830381600087803b15801561098557600080fd5b505af1158015610999573d6000803e3d6000fd5b505050506040513d601f19601f820116820180604052508101906107a69190612883565b6000808080336001600160a01b03166109de6001546001600160a01b031690565b6001600160a01b031614610a045760405162461bcd60e51b81526004016106599061284e565b6020544614610a6b5760405162461bcd60e51b815260206004820152602d60248201527f546869732066756e6374696f6e206973206f6e6c7920617661696c61626c652060448201526c37b7103a32b9ba3732ba17171760991b6064820152608401610659565b5050600b54600c54600d54600e5492959194509250565b336001600160a01b037f00000000000000000000000000000000000000000000000000000000000000001614610afa5760405162461bcd60e51b815260206004820152601f60248201527f4f6e6c7920565246436f6f7264696e61746f722063616e2066756c66696c6c006044820152606401610659565b6106828282611de5565b6002546001600160a01b03163314610b5a5760405162461bcd60e51b815260206004820152601960248201527863616c6c6572206973206e6f742074686520776f726b65722160381b6044820152606401610659565b600154600160a01b900460ff1615610b845760405162461bcd60e51b8152600401610659906127e9565b60008381526015602052604090205460ff161515600114610c95576000838152601560205260408120805460ff19166001179055600f805460ff1691610bc9836128bb565b825460ff9182166101009390930a92830291909202199091161790555060128054600181810183556000929092527fbb8a6a4669ba250d26cd7a459eca9d215f8307e33aebe50379bc5a3617ec344401849055610c279060196128db565b600f5460ff161480610c5457506001610c42601960026128f2565b610c4c91906128db565b600f5460ff16145b80610c7a57506001610c68601960036128f2565b610c7291906128db565b600f5460ff16145b15610c955760108054906000610c8f83612911565b91905055505b60008381526014602052604081208054610cae90612813565b80601f0160208091040260200160405190810160405280929190818152602001828054610cda90612813565b8015610d275780601f10610cfc57610100808354040283529160200191610d27565b820191906000526020600020905b815481529060010190602001808311610d0a57829003601f168201915b50505050509050600a60019054906101000a900460ff16158015610d705750805160208201207fec08d0974e93cdef3f47cd5c5a287a626489bcf52960b0af6a2544794055c85b145b15610ed657600a805461ff001916610100179055601380546001810182556000919091526040805180820190915260038082526261636560e81b602092909201918252610dce92600080516020612a038339815191520191906122e7565b506000600660105481548110610de657610de661292c565b90600052602060002001546001610dfd9190612942565b610e0790846128f2565b6040519091506001600160a01b0385169082156108fc029083906000818181858888f19350505050158015610e40573d6000803e3d6000fd5b507f20549a47e5677d2675df8a544eb973c3d493dbbdef4c045cbb3d46359fd4043b848683604051610e749392919061295a565b60405180910390a1600080516020612a238339815191528585604051610ec89291909182526060602083018190526003908301526261636560e81b60808301526001600160a01b0316604082015260a00190565b60405180910390a15061149d565b600a5462010000900460ff16158015610f145750805160208201207f8f77c8c6fd421d301c5f91568d08c991f5a87c5f04cc3f0a4176f9e9b14c3854145b1561107057600a805462ff000019166201000017905560138054600181018255600091909152604080518082019091526004808252636b696e6760e01b602092909201918252610f7592600080516020612a038339815191520191906122e7565b506000600760105481548110610f8d57610f8d61292c565b90600052602060002001546001610fa49190612942565b610fae90846128f2565b6040519091506001600160a01b0385169082156108fc029083906000818181858888f19350505050158015610fe7573d6000803e3d6000fd5b507f2f3551b302f602109515cd691edf4830a8a8ecc1690fa259b36c6342e3ea98a284868360405161101b9392919061295a565b60405180910390a1600080516020612a238339815191528585604051610ec8929190918252606060208301819052600490830152636b696e6760e01b60808301526001600160a01b0316604082015260a00190565b600a546301000000900460ff161580156110af5750805160208201207ff6a2574f8130a5385a107da69d90fd5f193de1a157d8c2a8da98cb1ea42522c3145b1561120f57600a805463ff00000019166301000000179055601380546001810182556000919091526040805180820190915260058082526438bab2b2b760d91b60209290920191825261111392600080516020612a038339815191520191906122e7565b50600060086010548154811061112b5761112b61292c565b906000526020600020015460016111429190612942565b61114c90846128f2565b6040519091506001600160a01b0385169082156108fc029083906000818181858888f19350505050158015611185573d6000803e3d6000fd5b507f02885e911d46c928b51cdf8ba6960c5a5bb10f00bd88137fef448864b1e01fee8486836040516111b99392919061295a565b60405180910390a1600080516020612a238339815191528585604051610ec89291909182526060602083018190526005908301526438bab2b2b760d91b60808301526001600160a01b0316604082015260a00190565b600a54640100000000900460ff1615801561124f5750805160208201207f4a7a3b66880358a34876a05412703713710faa855824c3c7e47b4d7ae6db8ecb145b1561138a57600a805464ff00000000191664010000000017905560138054600181018255600091909152604080518082019091526004808252636a61636b60e01b6020929092019182526112b492600080516020612a038339815191520191906122e7565b506011546040516001600160a01b0385169180156108fc02916000818181858888f193505050501580156112ec573d6000803e3d6000fd5b507fa0053f391e9fab514f70e212327f2b07432db584ee1aae722a060606cc9c5a3b83856011546040516113229392919061295a565b60405180910390a1600080516020612a238339815191528484604051611377929190918252606060208301819052600490830152636a61636b60e01b60808301526001600160a01b0316604082015260a00190565b60405180910390a160195460115561149d565b805160208201207f7dd481eb4b63b94bb55e6b98aabb06c3b8484f82a4d656d6bca0b0cf9b446be014156113bd5761149d565b60006064600554846113cf91906128f2565b6113d99190612991565b905080601160008282546113ed9190612942565b9091555050601154604080516001600160a01b0387168152602081018890528082019290925260608201839052517f8ee6120abee52c14fc62eb1c49ed886e97ccb24df03adb97f60a93a59e5934539181900360800190a1600080516020612a23833981519152858560405161149392919091825260606020830181905260059083015264656d70747960d81b60808301526001600160a01b0316604082015260a00190565b60405180910390a1505b600a54640100000000900460ff16151560011480156114ca5750600a546301000000900460ff1615156001145b80156114e35750600a5462010000900460ff1615156001145b80156114fc5750600a5460ff6101009091041615156001145b1561151157611509611f90565b6115116116f8565b50505050565b6001600160a01b038116600090815260096020526040902080546060919061153e90612813565b80601f016020809104026020016040519081016040528092919081815260200182805461156a90612813565b80156115b75780601f1061158c576101008083540402835291602001916115b7565b820191906000526020600020905b81548152906001019060200180831161159a57829003601f168201915b50505050509050919050565b6001546001600160a01b031633146115ed5760405162461bcd60e51b81526004016106599061284e565b478111156116545760405162461bcd60e51b815260206004820152602e60248201527f43616e6e6f74207769746864726177206d6f7265207468616e2074686520637560448201526d7272656e742062616c616e63652160901b6064820152608401610659565b604051600090339083908381818185875af1925050503d8060008114611696576040519150601f19603f3d011682016040523d82523d6000602084013e61169b565b606091505b505090508061068257600080fd5b6001546060906001600160a01b031633146116d65760405162461bcd60e51b81526004016106599061284e565b5060408051808201909152600781526666756e6465642160c81b602082015290565b6002546001600160a01b0316331461174e5760405162461bcd60e51b815260206004820152601960248201527863616c6c6572206973206e6f742074686520776f726b65722160381b6044820152606401610659565b611756611896565b5061175f611896565b50611768611896565b50611771611896565b506040517f3d9116c57b96f3053eaf908085a2d7d4f8d5514e28fe0dae24b0ff73fe7dbe0e90600090a1565b6001546000906001600160a01b031633146117ca5760405162461bcd60e51b81526004016106599061284e565b6021546040516370a0823160e01b81523060048201526001600160a01b03909116906370a082319060240160206040518083038186803b15801561180d57600080fd5b505afa158015611821573d6000803e3d6000fd5b505050506040513d601f19601f8201168201806040525081019061184591906129a5565b905090565b6001546001600160a01b031633146118745760405162461bcd60e51b81526004016106599061284e565b600280546001600160a01b0319166001600160a01b0392909216919091179055565b600061184560165460175461215e565b600154600160a01b900460ff16156118d05760405162461bcd60e51b8152600401610659906127e9565b670de0b6b3a764000034101561193f5760405162461bcd60e51b815260206004820152602e60248201527f706c656173652073656e64206d6f7265204d4154494320746f6b656e7320776960448201526d746820796f75722067756573732160901b6064820152608401610659565b678ac7230489e800003411156119af5760405162461bcd60e51b815260206004820152602f60248201527f706c656173652073656e64206665776572204d4154494320746f6b656e73207760448201526e69746820796f75722067756573732160881b6064820152608401610659565b60408051828152336020820152348183015290517fa5d94d1f466ca4e81201b082df5022d3c60433577d800bd72ccacba444f3be449181900360600190a150565b6060601280548060200260200160405190810160405280929190818152602001828054801561071d57602002820191906000526020600020905b815481526020019060010190808311611a2a575050505050905090565b6001546001600160a01b03163314611a715760405162461bcd60e51b81526004016106599061284e565b6001600160a01b038116611ad65760405162461bcd60e51b815260206004820152602660248201527f4f776e61626c653a206e6577206f776e657220697320746865207a65726f206160448201526564647265737360d01b6064820152608401610659565b6107a681611d93565b611b5e604051806101c0016040528060001515815260200160001515815260200160001515815260200160001515815260200160001515815260200160008152602001600081526020016000815260200160008152602001600060ff168152602001600081526020016000815260200160608152602001606081525090565b604080516101c081018252600a5460ff8082161515835261010082048116801515602085015262010000830482161515948401949094526301000000820481161515606084015264010000000090910416151560808201529060a0820190611bc7576000611bcb565b600b545b8152602001600a60029054906101000a900460ff16611beb576000611bef565b600c545b8152602001600a60039054906101000a900460ff16611c0f576000611c13565b600d545b8152602001600a60049054906101000a900460ff16611c33576000611c37565b600e545b8152602001600f60009054906101000a900460ff1660ff168152602001601054815260200160115481526020016012805480602002602001604051908101604052809291908181526020018280548015611cb057602002820191906000526020600020905b815481526020019060010190808311611c9c575b505050505081526020016013805480602002602001604051908101604052809291908181526020016000905b82821015611d88578382906000526020600020018054611cfb90612813565b80601f0160208091040260200160405190810160405280929190818152602001828054611d2790612813565b8015611d745780601f10611d4957610100808354040283529160200191611d74565b820191906000526020600020905b815481529060010190602001808311611d5757829003601f168201915b505050505081526020019060010190611cdc565b505050915250919050565b600180546001600160a01b038381166001600160a01b0319831681179093556040519116919082907f8be0079c531659141344cd1fd0a4f28419497f9722a3daafe3b4186f6b6457e090600090a35050565b6000600454600354611df791906128f2565b611e0190836129be565b611e0c906001612942565b9050600b54811480611e1f5750600c5481145b80611e2b5750600d5481145b80611e375750600e5481145b15611e4a5761151160165460175461215e565b600b54611e8c57600b819055604080518082018252600381526261636560e81b60208083019182526000858152601490915292909220905161151192906122e7565b600c54611ecf57600c81905560408051808201825260048152636b696e6760e01b60208083019182526000858152601490915292909220905161151192906122e7565b600d54611f1357600d819055604080518082018252600581526438bab2b2b760d91b60208083019182526000858152601490915292909220905161151192906122e7565b600e54611f8b57600e81905560408051808201825260048152636a61636b60e01b602080830191825260008581526014909152929092209051611f5692906122e7565b50600a805460ff191690556040517fe4a5462eb0b4c1885f0b17d3400afc49c2affcef198643763bda4263fdd4553b90600090a15b505050565b600a805460ff191660011790556040517fdf469ccbe88d3fa5b8dc86f2ec56789684f26c46be3735d80d0788b9cfed041290600090a160005b600f5460ff16811015612022576015600060128381548110611fed57611fed61292c565b600091825260208083209091015483528201929092526040019020805460ff191690558061201a81612911565b915050611fc9565b506040805180820182526005815264656d70747960d81b6020808301918252600b546000908152601490915292909220905161205e92906122e7565b506040805180820182526005815264656d70747960d81b6020808301918252600c546000908152601490915292909220905161209a92906122e7565b506040805180820182526005815264656d70747960d81b6020808301918252600d54600090815260149091529290922090516120d692906122e7565b506040805180820182526005815264656d70747960d81b6020808301918252600e546000908152601490915292909220905161211292906122e7565b50600a805464ffffffff00191690556000600b819055600c819055600d819055600e819055600f805460ff1916905560108190556121529060129061236b565b6107dd60136000612389565b60007f00000000000000000000000000000000000000000000000000000000000000006001600160a01b0316634000aea07f0000000000000000000000000000000000000000000000000000000000000000848660006040516020016121ce929190918252602082015260400190565b6040516020818303038152906040526040518463ffffffff1660e01b81526004016121fb939291906129d2565b602060405180830381600087803b15801561221557600080fd5b505af1158015612229573d6000803e3d6000fd5b505050506040513d601f19601f8201168201806040525081019061224d9190612883565b5060008381526020818152604080832054815180840188905280830185905230606082015260808082018390528351808303909101815260a0909101909252815191830191909120868452929091526122a7906001612942565b6000858152602081815260409182902092909255805180830187905280820184905281518082038301815260609091019091528051910120949350505050565b8280546122f390612813565b90600052602060002090601f016020900481019282612315576000855561235b565b82601f1061232e57805160ff191683800117855561235b565b8280016001018555821561235b579182015b8281111561235b578251825591602001919060010190612340565b506123679291506123a7565b5090565b50805460008255906000526020600020908101906107a691906123a7565b50805460008255906000526020600020908101906107a691906123bc565b5b8082111561236757600081556001016123a8565b808211156123675760006123d082826123d9565b506001016123bc565b5080546123e590612813565b6000825580601f106123f5575050565b601f0160209004906000526020600020908101906107a691906123a7565b634e487b7160e01b600052604160045260246000fd5b60006020828403121561243b57600080fd5b813567ffffffffffffffff8082111561245357600080fd5b818401915084601f83011261246757600080fd5b81358181111561247957612479612413565b604051601f8201601f19908116603f011681019083821181831017156124a1576124a1612413565b816040528281528760208487010111156124ba57600080fd5b826020860160208301376000928101602001929092525095945050505050565b6000815180845260005b81811015612500576020818501810151868301820152016124e4565b81811115612512576000602083870101525b50601f01601f19169290920160200192915050565b60208152600061253a60208301846124da565b9392505050565b6000602080830181845280855180835260408601915060408160051b870101925083870160005b8281101561259657603f198886030184526125848583516124da565b94509285019290850190600101612568565b5092979650505050505050565b600080604083850312156125b657600080fd5b50508035926020909101359150565b80356001600160a01b03811681146125dc57600080fd5b919050565b6000806000606084860312156125f657600080fd5b83359250612606602085016125c5565b9150604084013590509250925092565b60006020828403121561262857600080fd5b61253a826125c5565b60006020828403121561264357600080fd5b5035919050565b600081518084526020808501945080840160005b8381101561267a5781518752958201959082019060010161265e565b509495945050505050565b60208152600061253a602083018461264a565b600081518084526020808501808196508360051b8101915082860160005b858110156126e05782840389526126ce8483516124da565b988501989350908401906001016126b6565b5091979650505050505050565b6020815261270060208201835115159052565b60006020830151612715604084018215159052565b5060408301518015156060840152506060830151801515608084015250608083015180151560a08401525060a083015160c083015260c083015160e083015260e08301516101008181850152808501519150506101208181850152808501519150506101406127888185018360ff169052565b84015161016084810191909152840151610180808501919091528401516101c06101a0808601829052919250906127c36101e086018461264a565b90860151858203601f1901838701529092506127df8382612698565b9695505050505050565b60208082526010908201526f14185d5cd8589b194e881c185d5cd95960821b604082015260600190565b600181811c9082168061282757607f821691505b6020821081141561284857634e487b7160e01b600052602260045260246000fd5b50919050565b6020808252818101527f4f776e61626c653a2063616c6c6572206973206e6f7420746865206f776e6572604082015260600190565b60006020828403121561289557600080fd5b8151801515811461253a57600080fd5b634e487b7160e01b600052601160045260246000fd5b600060ff821660ff8114156128d2576128d26128a5565b60010192915050565b6000828210156128ed576128ed6128a5565b500390565b600081600019048311821515161561290c5761290c6128a5565b500290565b6000600019821415612925576129256128a5565b5060010190565b634e487b7160e01b600052603260045260246000fd5b60008219821115612955576129556128a5565b500190565b6001600160a01b039390931683526020830191909152604082015260600190565b634e487b7160e01b600052601260045260246000fd5b6000826129a0576129a061297b565b500490565b6000602082840312156129b757600080fd5b5051919050565b6000826129cd576129cd61297b565b500690565b60018060a01b03841681528260208201526060604082015260006129f960608301846124da565b9594505050505056fe66de8ffda797e3de9c05e8fc57b3bf0ec28a930d40b0d285d93c06501cf6a090f7aa17f36019c515591c0557985645cf904fcf1626b871f1af8eb41a61c821dba264697066735822122058f4a0c773ac027a568963b93c2078812c85e34f045b4336d2437095eb6d597964736f6c63430008080033",
  "immutableReferences": {
    "73": [
      {
        "length": 32,
        "start": 8546
      }
    ],
    "75": [
      {
        "length": 32,
        "start": 2701
      },
      {
        "length": 32,
        "start": 8593
      }
    ]
  },
  "source": "// SPDX-License-Identifier: GPL-3.0\npragma solidity 0.8.8;\n\n/** Remix Imports */\n\n// import \"https://raw.githubusercontent.com/OpenZeppelin/openzeppelin-contracts/master/contracts/access/Ownable.sol\";\n// import \"https://raw.githubusercontent.com/OpenZeppelin/openzeppelin-contracts/master/contracts/security/Pausable.sol\";\n// import \"https://raw.githubusercontent.com/OpenZeppelin/openzeppelin-contracts/master/contracts/token/ERC20/ERC20.sol\";\n// import \"https://raw.githubusercontent.com/smartcontractkit/chainlink/v0.10.14/contracts/src/v0.8/VRFConsumerBase.sol\";\n\n/** NPM Imports */\n\nimport \"@openzeppelin/contracts/access/Ownable.sol\";\nimport \"@openzeppelin/contracts/security/Pausable.sol\";\nimport \"@openzeppelin/contracts/token/ERC20/ERC20.sol\";\nimport \"@chainlink/contracts/src/v0.8/VRFConsumerBase.sol\";\n\n// Created by Jim!\n\n/**\n *   A game where there are some face down cards (boardWidth * boardHeight)\n *\n *   Users pay 1 matic token to guess a card which is then revealed to all players.\n *\n *   There is 1 of each face card hidden in the pile.\n *\n *   The first user to find each face card gets paid according to this schedule:\n *\n *   ace   ->  acePayoutMultiplier\n *   king  ->  kingPayoutMultiplier\n *   queen ->  queenPayoutMultiplier\n *   jack ->   wins the progressive jackpot\n *\n *   A percentage of each user's bet (jackpotRakePercentage) is added to the pot for every wrong guess.\n *\n **/\n\ncontract CCGG_all is VRFConsumerBase, Ownable, Pausable {\n    // address used for the server worker account\n    address private worker = msg.sender;\n\n    // contraints for how much user can bet\n    uint256 public constant MIN_BET = 1 ether;\n    uint256 public constant MAX_BET = 10 ether;\n\n    uint256 constant CARDS_PER_LEVEL = 25;\n\n    // cards per row\n    uint256 public boardWidth = 10;\n\n    // number of rows of cards\n    uint256 public boardHeight = 10;\n\n    // percentage of each user bet that gets added to the progressive jackpot\n    uint256 jackpotRakePercentage = 25;\n\n    // shrinks facecard payouts as level decreases\n    uint256[] aceMultiplierLvls = [25, 15, 12, 3];\n    uint256[] kingMultiplierLvls = [15, 10, 6, 2];\n    uint256[] queenMultiplierLvls = [10, 5, 3, 1];\n\n    mapping(address => string) nicknames;\n\n    bool gameIsBeingCreated = true;\n\n    enum FaceCard { Ace, King, Queen, Jack }\n\n    struct GameState {\n        bool gameIsBeingCreated;\n        bool aceHasBeenFound;\n        bool kingHasBeenFound;\n        bool queenHasBeenFound;\n        bool jackHasBeenFound;\n        uint256 aceNum;\n        uint256 kingNum;\n        uint256 queenNum;\n        uint256 jackNum;\n        uint8 cardsChosen;\n        uint256 currentLevel;\n        uint256 jackpotSize;\n        uint256[] revealedCards;\n        string[] revealedCardValues;\n    }\n\n    bool public aceHasBeenFound;\n    bool public kingHasBeenFound;\n    bool public queenHasBeenFound;\n    bool public jackHasBeenFound;\n\n    uint256 aceNum;\n    uint256 kingNum;\n    uint256 queenNum;\n    uint256 jackNum;\n\n    uint8 public cardsChosen;\n    uint256 public currentLevel;\n\n    uint256 public jackpotSize;\n\n    uint256[] revealedCards;\n    string[] revealedCardValues;\n\n    mapping(uint256 => string) internal currentBoard;\n\n    mapping(uint256 => bool) alreadyChosenCards;\n\n    event AceFound(address guesser, uint256 numGuessed, uint256 payoutAmount);\n    event KingFound(address guesser, uint256 numGuessed, uint256 payoutAmount);\n    event QueenFound(address guesser, uint256 numGuessed, uint256 payoutAmount);\n    event JackFound(address guesser, uint256 numGuessed, uint256 payoutAmount);\n\n    event FaceCardFound(\n        address guesser,\n        uint256 numGuessed,\n        uint256 payoutAmount,\n        FaceCard faceCardType\n    );\n\n    event JackpotSizeIncrease(\n        address contributor,\n        uint256 amountContributed,\n        uint256 newJackpotSize,\n        uint256 amountAddedToJackpot\n    );\n\n    event CardRevealed(uint256 cardNumber, string cardValue, address guessedBy);\n\n    event GameOver();\n\n    event NewGameCreated();\n\n    event BoardIsReady();\n\n    event GuessSubmitted(\n        uint256 guessNumber,\n        address guessedBy,\n        uint256 betSize\n    );\n\n    event GameOverTimeout();\n\n    bytes32 public keyHash;\n    uint256 public fee;\n    uint256 public randomResult;\n\n    uint256 INITIAL_JACKPOT_SIZE = 1 ether;\n\n    address mainnetLinkAddress = 0xb0897686c545045aFc77CF20eC7A532E3120E0F1;\n    address testnetLinkAddress = 0x326C977E6efc84E512bB9C30f76E30c160eD06FB;\n\n    address mainnetVrfCoordinator = 0x3d2341ADb2D31f1c5530cDC622016af293177AE0;\n    address testnetVrfCoordinator = 0x8C7382F9D8f56b33781fE506E897a4F1e2d17255;\n\n    bytes32 mainnetOracleKeyHash =\n        0xf86195cf7690c55907b2b611ebb7343a6f649bff128701cc542f0569e2c549da;\n\n    bytes32 testnetOracleKeyHash =\n        0x6e75b569a01ef56d18cab6a8e71e6600d6ce853834d4a5748b720d06f878b3a4;\n\n    uint256 MUMBAI_TESTNET_CHAINID = 80001;\n\n    address __linkTokenAddress =\n        getChainId() == MUMBAI_TESTNET_CHAINID\n            ? testnetLinkAddress\n            : mainnetLinkAddress;\n\n    address __vrfCoordinatorAddress =\n        getChainId() == MUMBAI_TESTNET_CHAINID\n            ? testnetVrfCoordinator\n            : mainnetVrfCoordinator;\n\n    bytes32 __oracleKeyhash =\n        getChainId() == MUMBAI_TESTNET_CHAINID\n            ? testnetOracleKeyHash\n            : mainnetOracleKeyHash;\n\n    constructor()\n        public\n        VRFConsumerBase(__vrfCoordinatorAddress, __linkTokenAddress)\n    {\n        keyHash = __oracleKeyhash;\n\n        fee = 0.0001 * 10**18; // 0.0001 Link\n\n        // Set empty squares\n        for (uint256 i = 1; i <= boardWidth * boardHeight; i++) {\n            currentBoard[i] = \"empty\";\n        }\n\n        jackpotSize = INITIAL_JACKPOT_SIZE;\n    }\n\n    /**\n     *        Randomness functions using Chainlink VRF\n     **/\n    function getRandomNumber()\n        public\n        returns (bytes32 requestId)\n    {\n        return requestRandomness(keyHash, fee);\n    }\n\n    /**\n     * hardcoded Randomness\n     **/\n    // function requestRandomness(bytes32 _1, uint256 _2)\n    //     internal\n    //     returns (bytes32)\n    // {\n    //     aceNum = 1;\n    //     currentBoard[aceNum] = \"ace\";\n\n    //     kingNum = 2;\n    //     currentBoard[kingNum] = \"king\";\n\n    //     queenNum = 3;\n    //     currentBoard[queenNum] = \"queen\";\n\n    //     jackNum = 4;\n    //     currentBoard[jackNum] = \"jack\";\n\n    //     return __oracleKeyhash;\n    // }\n\n    function fulfillRandomness(bytes32 requestId, uint256 randomness)\n        internal\n        override\n    {\n        uint256 newRandomNum = (randomness % (boardWidth * boardHeight)) + 1;\n\n        // if that index is already a face card index, choose another random num.\n        if (\n            newRandomNum == aceNum ||\n            newRandomNum == kingNum ||\n            newRandomNum == queenNum ||\n            newRandomNum == jackNum\n        ) {\n            requestRandomness(keyHash, fee);\n\n            return;\n        }\n\n        // Now use random num as index of the next facecard whose value has not yet been set.\n\n        if (aceNum == 0) {\n            aceNum = newRandomNum;\n            currentBoard[aceNum] = \"ace\";\n        } else if (kingNum == 0) {\n            kingNum = newRandomNum;\n            currentBoard[kingNum] = \"king\";\n        } else if (queenNum == 0) {\n            queenNum = newRandomNum;\n            currentBoard[queenNum] = \"queen\";\n        } else if (jackNum == 0) {\n            jackNum = newRandomNum;\n            currentBoard[jackNum] = \"jack\";\n            gameIsBeingCreated = false;\n            emit BoardIsReady();\n        }\n    }\n\n    /**\n     *        function for front-end to get the current game state\n     **/\n    function getCurrentGameState() external view returns (GameState memory) {\n        return\n            GameState(\n                gameIsBeingCreated,\n                aceHasBeenFound,\n                kingHasBeenFound,\n                queenHasBeenFound,\n                jackHasBeenFound,\n                aceHasBeenFound ? aceNum : 0,\n                kingHasBeenFound ? kingNum : 0,\n                queenHasBeenFound ? queenNum : 0,\n                jackHasBeenFound ? jackNum : 0,\n                cardsChosen,\n                currentLevel,\n                jackpotSize,\n                revealedCards,\n                revealedCardValues\n            );\n    }\n\n    function createNewBoard() public onlyWorker {\n        getRandomNumber();\n        getRandomNumber();\n        getRandomNumber();\n        getRandomNumber();\n\n        emit NewGameCreated();\n    }\n\n    function destroyFinishedGameData() internal {\n        \n        gameIsBeingCreated = true;\n\n        emit GameOver();\n\n        for (uint256 i = 0; i < cardsChosen; i++) {\n            delete alreadyChosenCards[revealedCards[i]];\n        }\n\n        currentBoard[aceNum] = \"empty\";\n        currentBoard[kingNum] = \"empty\";\n        currentBoard[queenNum] = \"empty\";\n        currentBoard[jackNum] = \"empty\";\n\n        aceHasBeenFound = false;\n        kingHasBeenFound = false;\n        queenHasBeenFound = false;\n        jackHasBeenFound = false;\n\n        aceNum = 0;\n        kingNum = 0;\n        queenNum = 0;\n        jackNum = 0;\n\n        cardsChosen = 0;\n        currentLevel = 0;\n\n        delete revealedCards;\n        delete revealedCardValues;\n    }\n\n    /**\n     *        function players call to make a bet\n     **/\n    function submitGuess(uint256 numGuessed) public payable whenNotPaused {\n        require(\n            msg.value >= MIN_BET,\n            \"please send more MATIC tokens with your guess!\"\n        );\n        require(\n            msg.value <= MAX_BET,\n            \"please send fewer MATIC tokens with your guess!\"\n        );\n\n        emit GuessSubmitted(numGuessed, msg.sender, msg.value);\n    }\n\n    /**\n     *        function called by relay server\n     **/\n    function processGuess(\n        uint256 numGuessed,\n        address guessedBy,\n        uint256 betSize\n    ) public payable onlyWorker whenNotPaused {\n\n        // if new guess, increment cards chosen, possibly increment level\n        if (alreadyChosenCards[numGuessed] != true) {\n            alreadyChosenCards[numGuessed] = true;\n            cardsChosen++;\n\n            revealedCards.push(numGuessed);\n\n            if (\n                cardsChosen == (CARDS_PER_LEVEL - 1) ||\n                cardsChosen == (CARDS_PER_LEVEL * 2 - 1) ||\n                cardsChosen == (CARDS_PER_LEVEL * 3 - 1)\n            ) {\n                currentLevel++;\n            }\n        }\n\n        string memory valueOfCardGuessed = currentBoard[numGuessed];\n\n        if (\n            !aceHasBeenFound &&\n            keccak256(bytes(valueOfCardGuessed)) == keccak256(\"ace\")\n        ) {\n            aceHasBeenFound = true;\n\n            revealedCardValues.push(\"ace\");\n\n            uint256 payoutAmount = betSize *\n                (1 + (aceMultiplierLvls[currentLevel])); // adds 1 to give the user's bet back\n\n            payable(guessedBy).transfer(payoutAmount);\n\n            emit AceFound(guessedBy, numGuessed, payoutAmount);\n\n            emit CardRevealed(numGuessed, \"ace\", guessedBy);\n        } else if (\n            !kingHasBeenFound &&\n            keccak256(bytes(valueOfCardGuessed)) == keccak256(\"king\")\n        ) {\n            kingHasBeenFound = true;\n\n            revealedCardValues.push(\"king\");\n\n            uint256 payoutAmount = betSize *\n                (1 + (kingMultiplierLvls[currentLevel])); // adds 1 to give the user's bet back\n\n            payable(guessedBy).transfer(payoutAmount);\n\n            emit KingFound(guessedBy, numGuessed, payoutAmount);\n\n            emit CardRevealed(numGuessed, \"king\", guessedBy);\n        } else if (\n            !queenHasBeenFound &&\n            keccak256(bytes(valueOfCardGuessed)) == keccak256(\"queen\")\n        ) {\n            queenHasBeenFound = true;\n\n            revealedCardValues.push(\"queen\");\n\n            uint256 payoutAmount = betSize *\n                (1 + (queenMultiplierLvls[currentLevel])); // adds 1 to give the user's bet back\n\n            payable(guessedBy).transfer(payoutAmount);\n\n            emit QueenFound(guessedBy, numGuessed, payoutAmount);\n            emit CardRevealed(numGuessed, \"queen\", guessedBy);\n        } else if (\n            !jackHasBeenFound &&\n            keccak256(bytes(valueOfCardGuessed)) == keccak256(\"jack\")\n        ) {\n            jackHasBeenFound = true;\n\n            revealedCardValues.push(\"jack\");\n\n            payable(guessedBy).transfer(jackpotSize);\n\n            emit JackFound(guessedBy, numGuessed, jackpotSize);\n            emit CardRevealed(numGuessed, \"jack\", guessedBy);\n\n            jackpotSize = INITIAL_JACKPOT_SIZE;\n        } else if (keccak256(bytes(valueOfCardGuessed)) == keccak256(\"nft\")) {\n            // transfer an nft to the user :)\n        } else {\n            uint256 amountAddedToJackpot = (betSize * jackpotRakePercentage) /\n                100;\n\n            jackpotSize += amountAddedToJackpot;\n\n            emit JackpotSizeIncrease(\n                guessedBy,\n                numGuessed,\n                jackpotSize,\n                amountAddedToJackpot\n            );\n\n            emit CardRevealed(numGuessed, \"empty\", guessedBy);\n        }\n\n        if (\n            jackHasBeenFound == true &&\n            queenHasBeenFound == true &&\n            kingHasBeenFound == true &&\n            aceHasBeenFound == true\n        ) {\n            destroyFinishedGameData();\n            createNewBoard();\n        }\n    }\n\n    function setNickname(string memory newNickname) external whenNotPaused {\n        nicknames[msg.sender] = newNickname;\n    }\n\n    function getNickname(address account)\n        external\n        view\n        returns (string memory)\n    {\n        return nicknames[account];\n    }\n\n    function getMyNickname() external view returns (string memory) {\n        return nicknames[msg.sender];\n    }\n\n    modifier onlyOnMumbaiTestnet() {\n        require(\n            getChainId() == MUMBAI_TESTNET_CHAINID,\n            \"This function is only available on testnet...\"\n        );\n        _;\n    }\n\n    function getFaceCardNumbers()\n        public\n        view\n        onlyOwner\n        onlyOnMumbaiTestnet\n        returns (\n            uint256,\n            uint256,\n            uint256,\n            uint256\n        )\n    {\n        return (aceNum, kingNum, queenNum, jackNum);\n    }\n\n    function getRevealedCards() public view returns (uint256[] memory) {\n        return revealedCards;\n    }\n\n    function getRevealedCardValues() public view returns (string[] memory) {\n        return revealedCardValues;\n    }\n\n    function getChainId() internal view returns (uint256 chainId) {\n        assembly {\n            chainId := chainid()\n        }\n    }\n\n    /**\n     *        Admin functions\n     **/\n\n    function fundContract() public payable onlyOwner returns (string memory) {\n        return \"funded!\";\n    }\n\n    function contractBalance() public view onlyOwner returns (uint256) {\n        return address(this).balance;\n    }\n\n    function withdraw() public payable onlyOwner {\n        (bool success, ) = payable(msg.sender).call{\n            value: address(this).balance\n        }(\"\");\n        require(success);\n    }\n\n    function withdrawSome(uint256 amountToWithdraw) public payable onlyOwner {\n        require(\n            amountToWithdraw <= address(this).balance,\n            \"Cannot withdraw more than the current balance!\"\n        );\n\n        (bool success, ) = payable(msg.sender).call{value: amountToWithdraw}(\n            \"\"\n        );\n        require(success);\n    }\n\n    function withdrawLink() public onlyOwner {\n        ERC20(__linkTokenAddress).transfer(owner(), linkBalance());\n    }\n\n    function linkBalance() public view onlyOwner returns (uint256) {\n        return ERC20(__linkTokenAddress).balanceOf(address(this));\n    }\n\n    function setWorker(address newWorker) external onlyOwner {\n        worker = newWorker;\n    }\n\n    /**\n     * @dev Throws if called by any account other than the owner.\n     */\n    modifier onlyWorker() {\n        require(worker == msg.sender, \"caller is not the worker!\");\n        _;\n    }\n}\n",
  "sourcePath": "/Users/jim/Git-Projects/blockchain-developer-bootcamp-final-project/contracts/CCGG_all.sol",
  "compiler": {
    "name": "solc",
    "version": "0.8.8+commit.dddeac2f.Linux.g++"
  },
  "schemaVersion": "3.4.3",
  "updatedAt": "2021-12-06T18:08:22.564Z",
  "devdoc": {
    "kind": "dev",
    "methods": {
      "owner()": {
        "details": "Returns the address of the current owner."
      },
      "paused()": {
        "details": "Returns true if the contract is paused, and false otherwise."
      },
      "renounceOwnership()": {
        "details": "Leaves the contract without owner. It will not be possible to call `onlyOwner` functions anymore. Can only be called by the current owner. NOTE: Renouncing ownership will leave the contract without an owner, thereby removing any functionality that is only available to the owner."
      },
      "transferOwnership(address)": {
        "details": "Transfers ownership of the contract to a new account (`newOwner`). Can only be called by the current owner."
      }
    },
    "version": 1
  },
  "userdoc": {
    "kind": "user",
    "methods": {
      "fundContract()": {
        "notice": "Admin functions*"
      },
      "getCurrentGameState()": {
        "notice": "function for front-end to get the current game state*"
      },
      "getRandomNumber()": {
        "notice": "Randomness functions using Chainlink VRF*"
      },
      "processGuess(uint256,address,uint256)": {
        "notice": "function called by relay server*"
      },
      "submitGuess(uint256)": {
        "notice": "function players call to make a bet*"
      }
    },
    "notice": "A game where there are some face down cards (boardWidth * boardHeight)   Users pay 1 matic token to guess a card which is then revealed to all players.   There is 1 of each face card hidden in the pile.   The first user to find each face card gets paid according to this schedule:   ace   ->  acePayoutMultiplier   king  ->  kingPayoutMultiplier   queen ->  queenPayoutMultiplier   jack ->   wins the progressive jackpot   A percentage of each user's bet (jackpotRakePercentage) is added to the pot for every wrong guess.*",
    "version": 1
  }
}